:020000040800F2
:10000000480B0020A5020008AD020008AF0200085E
:10001000B1020008B3020008B502000800000000A9
:10002000000000000000000000000000B70200080F
:10003000B902000800000000BB02000883020008AB
:10004000BF020008BF020008BF020008BF0200088C
:10005000BF020008BF020008BF020008BF0200087C
:10006000BF020008BF020008BF020008BF0200086C
:10007000BF020008BF020008BF020008BF0200085C
:10008000BF020008BF020008BF020008BF0200084C
:10009000BF020008BF020008BF020008BF0200083C
:1000A000BF020008BF020008BF020008BF0200082C
:1000B000BF020008BF020008BF020008BF0200081C
:1000C000BF020008BF020008BF020008BF0200080C
:1000D000BF020008BF020008BF020008BF020008FC
:1000E000BF020008BF020008BF020008BF020008EC
:1000F000BF020008BF020008BF020008BF020008DC
:10010000BF020008BF020008BF020008BF020008CB
:10011000BF020008BF020008BF020008BF020008BB
:10012000BF020008BF020008BF020008BF020008AB
:10013000BF0200080000000000000000BF0200082D
:10014000BF020008BF020008BF020008BF0200088B
:10015000BF020008BF020008BF020008BF0200087B
:10016000BF020008BF020008BF020008BF0200086B
:10017000BF020008BF020008BF0200080000000024
:1001800000000000BF0200080000000000000000A6
:10019000BF0200080000000000000000BF020008CD
:1001A000000000000000000000000000BF02000886
:1001B000BF020008BF020008BF020008BF0200081B
:1001C000BF02000800F002F800F03CF80AA090E836
:1001D000000C82448344AAF10107DA4501D100F002
:1001E00031F8AFF2090EBAE80F0013F0010F18BF93
:1001F000FB1A43F00103184750030000700300008E
:10020000103A24BF78C878C1FAD8520724BF30C842
:1002100030C144BF04680C60704700000023002414
:1002200000250026103A28BF78C1FBD8520728BF06
:1002300030C148BF0B6070471FB500F07FF91FBD8C
:1002400010B510BD00F051F81146FFF7F5FF00F0B2
:10025000B7F800F06FF803B4FFF7F2FF03BC00F04B
:1002600077F800000E480268D2F800D0BDE8F00F21
:100270000FBC5DF804CB01B05DF804EB01B062B6D1
:10028000704772B62DE9F00F05480168C1F800D03B
:1002900049680160D1F800D0BDE8F00F62B6704740
:1002A000140000200948804709480047FEE7FEE7A0
:1002B000FEE7FEE7FEE7FEE7FEE7FEE7FEE7FEE716
:1002C00004480549054A064B7047000061030008D1
:1002D000C501000848050020480B00204807002001
:1002E00048070020704770477047754600F02CF8AB
:1002F000AE4605006946534620F00700854618B013
:1003000020B5FFF7DDFFBDE820404FF000064FF0BD
:1003100000074FF000084FF0000B21F00701AC463A
:10032000ACE8C009ACE8C009ACE8C009ACE8C00959
:100330008D46704710B50446AFF300802046BDE8F7
:100340001040FFF788BF000000487047E404002019
:1003500001491820ABBEFEE72600020070470000EE
:100360000248016841F470010160704788ED00E0C7
:10037000064C0648103000F0CDF804480C3000F070
:1003800039F82068401C2060F3E7000000000020DE
:10039000064C0648103000F02DF804480C3000F0F0
:1003A000B9F86068401C6060F3E7000000000020BE
:1003B00002488168491C8160FCE7000000000020C1
:1003C000084A0949094800F023F80121084800F0CB
:1003D000A7F807480021001D00F0A2F800F042F83D
:1003E000FEE70000B1030008910300087103000854
:1003F0000C00002000B5024672B6106818B1401E0D
:10040000106062B600BD62B600F08CF8F4E7000040
:100410002DE9F04116460F46054672B60F48A0F189
:100420000804606008306461E060002000F040F87B
:10043000284604F11805C5F88801012000F038F8B5
:100440000220C5F8187300F033F80548C5F8A86411
:10045000046062B60120BDE8F081000024000020A5
:10046000140000200349024848600A2000F004B844
:1004700040190100140000204FF0E02100220A6121
:100480008A61094A52685043401E4861074AF02079
:1004900082F8140D086940F005000861086940F011
:1004A00002000861FFF7DEBE140000200FE000E04C
:1004B00000EBC00101EB00121549154B01EB0211D5
:1004C000183B01F5A87243F830204FF08070C1F856
:1004D0008C014FF0AA30C1F88401C1F88001C1F845
:1004E0007C01C1F87801C1F87401C1F87001C1F84C
:1004F0006C01C1F86801C1F86401C1F86001C1F87C
:100500005C01C1F85801C1F85401C1F850017047AD
:100510003400002072B60168491C016062B6704761
:10052000016070474FF0E0210020886102480168B7
:1005300041F080610160704704ED00E04FF04070D1
:10054000E1EE100A70470000680500080000002076
:100550001C00000000020008840500081C000020A8
:100560002C0B00001C02000800000000000000002E
:10057000000000000000000000000000000000007B
:040580000000000077
:04000005080001C529
:00000001FF
