:020000040800F2
:10000000300B00206D02000875020008770200081E
:10001000790200087B0200087D0200080000000051
:100020000000000000000000000000007F02000847
:100030008102000800000000830200088502000819
:10004000870200088702000887020008870200086C
:10005000870200088702000887020008870200085C
:10006000870200088702000887020008870200084C
:10007000870200088702000887020008870200083C
:10008000870200088702000887020008870200082C
:10009000870200088702000887020008870200081C
:1000A000870200088702000887020008870200080C
:1000B00087020008870200088702000887020008FC
:1000C00087020008870200088702000887020008EC
:1000D00087020008870200088702000887020008DC
:1000E00087020008870200088702000887020008CC
:1000F00087020008870200088702000887020008BC
:1001000087020008870200088702000887020008AB
:10011000870200088702000887020008870200089B
:10012000870200088702000887020008870200088B
:10013000870200080000000000000000870200089D
:10014000870200088702000887020008870200086B
:10015000870200088702000887020008870200085B
:10016000870200088702000887020008870200084B
:1001700087020008870200088702000800000000CC
:1001800000000000870200080000000000000000DE
:10019000870200080000000000000000870200083D
:1001A00000000000000000000000000087020008BE
:1001B00087020008870200088702000887020008FB
:1001C0008702000800F002F800F02EF80AA090E87C
:1001D000000C82448344AAF10107DA4501D100F002
:1001E00023F8AFF2090EBAE80F0013F0010F18BFA1
:1001F000FB1A43F001031847E8020000F802000070
:100200000023002400250026103A28BF78C1FBD81F
:10021000520728BF30C148BF0B6070471FB500F0C0
:1002200052F91FBD10B510BD00F072F81146FFF76E
:10023000F5FF00F0BFF800F090F803B4FFF7F2FF0D
:1002400003BC00F097F8000007480268D2F800D01D
:10025000BDE8F00F0FBC5DF804CB01B05DF804EB16
:1002600001B062B6704700001405002009488047BD
:1002700009480047FEE7FEE7FEE7FEE7FEE7FEE788
:10028000FEE7FEE7FEE7FEE704480549054A064BA0
:100290007047000085030008C501000830050020F4
:1002A000300B0020300700203007002002F0FF0351
:1002B00043EA032242EA024200F005B87047704761
:1002C00070474FF0000200B5134694469646203919
:1002D00022BFA0E80C50A0E80C50B1F12001BFF4FF
:1002E000F7AF090728BFA0E80C5048BF0CC05DF865
:1002F00004EB890028BF40F8042B08BF704748BFB3
:1003000020F8022B11F0804F18BF00F8012B704726
:10031000754600F02BF8AE4605006946534620F0BE
:100320000700854618B020B5FFF7AEFFBDE82040B6
:100330004FF000064FF000074FF000084FF0000BA1
:10034000AC46ACE8C009ACE8C009ACE8C009ACE810
:10035000C00921F007018D46704710B50446AFF380
:1003600000802046BDE81040FFF767BF0048704797
:100370000000002001491820ABBEFEE72600020065
:10038000704700004EF68850CEF20000016841F43C
:100390007001016070470000FEE70000FEE700000A
:1003A000FEE700004EF62350CEF20000F02101706F
:1003B0007047000040F2993040F29D3140F2A13286
:1003C000C0F60000C0F60001C0F6000200F004F81C
:1003D00000F032F8FEE700002DE9F04140F2185736
:1003E0000646EFF3108072B6C2F2000707F108006C
:1003F000786007F11000F860002090460D467F619C
:1004000000F046F840F26404C2F200040120C4F88F
:10041000886100F03DF80220C4F8185300F038F865
:1004200040F21450C2F2000007600120C4F8A88412
:1004300062B6BDE8F081000080B540F2600041F690
:100440004011C2F20000C0F2010101600A2000F078
:1004500001F880BD10B54EF21004CEF20004002168
:100460002160A16040F26001C2F2000109684843C6
:1004700001386060FFF796FF206840F005002060BB
:10048000206840F002002060FFF7DEFE10BD000093
:1004900080B540F26401C2F200014FF4C87200FB63
:1004A000021240F2185302F5A871C2F2000343F899
:1004B00030104FF08070C2F88C0108463821AA2213
:1004C000FFF7F4FE80BDF1EE100A4FF6FF71C0F2A7
:1004D000C03120EA010040F04070E1EE100A7047A0
:1004E000F004000800000020300B000000020008AB
:04000005080001C529
:00000001FF
