:020000040800F2
:10000000400B0020890200089102000893020008BA
:1000100095020008970200089902000800000000FD
:100020000000000000000000000000009B0200082B
:100030009D020008000000009F02000867020008FF
:10004000A3020008A3020008A3020008A3020008FC
:10005000A3020008A3020008A3020008A3020008EC
:10006000A3020008A3020008A3020008A3020008DC
:10007000A3020008A3020008A3020008A3020008CC
:10008000A3020008A3020008A3020008A3020008BC
:10009000A3020008A3020008A3020008A3020008AC
:1000A000A3020008A3020008A3020008A30200089C
:1000B000A3020008A3020008A3020008A30200088C
:1000C000A3020008A3020008A3020008A30200087C
:1000D000A3020008A3020008A3020008A30200086C
:1000E000A3020008A3020008A3020008A30200085C
:1000F000A3020008A3020008A3020008A30200084C
:10010000A3020008A3020008A3020008A30200083B
:10011000A3020008A3020008A3020008A30200082B
:10012000A3020008A3020008A3020008A30200081B
:10013000A30200080000000000000000A302000865
:10014000A3020008A3020008A3020008A3020008FB
:10015000A3020008A3020008A3020008A3020008EB
:10016000A3020008A3020008A3020008A3020008DB
:10017000A3020008A3020008A30200080000000078
:1001800000000000A30200080000000000000000C2
:10019000A30200080000000000000000A302000805
:1001A000000000000000000000000000A3020008A2
:1001B000A3020008A3020008A3020008A30200088B
:1001C000A302000800F002F800F02EF80AA090E860
:1001D000000C82448344AAF10107DA4501D100F002
:1001E00023F8AFF2090EBAE80F0013F0010F18BFA1
:1001F000FB1A43F00103184794030000A403000016
:100200000023002400250026103A28BF78C1FBD81F
:10021000520728BF30C148BF0B6070471FB500F0C0
:10022000A8F91FBD10B510BD00F080F81146FFF70A
:10023000F5FF00F0FBF800F09EF803B4FFF7F2FFC3
:1002400003BC00F0A5F800000E480268D2F800D008
:10025000BDE8F00F0FBC5DF804CB01B05DF804EB16
:1002600001B062B6704772B62DE9F00F054801681B
:10027000C1F800D049680160D1F800D0BDE8F00FA6
:1002800062B67047140500200948804709480047B6
:10029000FEE7FEE7FEE7FEE7FEE7FEE7FEE7FEE736
:1002A000FEE7FEE704480549054A064B7047000093
:1002B000A1030008C501000840050020400B0020F4
:1002C000400700204007002002F0FF0343EA03221A
:1002D00042EA024200F005B87047704770474FF09D
:1002E000000200B5134694469646203922BFA0E886
:1002F0000C50A0E80C50B1F12001BFF4F7AF090792
:1003000028BFA0E80C5048BF0CC05DF804EB890082
:1003100028BF40F8042B08BF704748BF20F8022BC5
:1003200011F0804F18BF00F8012B7047754600F0A0
:100330002BF8AE4605006946534620F00700854677
:1003400018B020B5FFF7AEFFBDE820404FF0000623
:100350004FF000074FF000084FF0000BAC46ACE840
:10036000C009ACE8C009ACE8C009ACE8C00921F09C
:1003700007018D46704710B50446AFF30080204654
:10038000BDE81040FFF759BF00487047000000204B
:1003900001491820ABBEFEE72600020070470000AE
:1003A0004EF68850CEF20000016841F47001016001
:1003B0007047000040F2205440F2185640F2245595
:1003C000C2F20004C2F20006C2F20005204600F0AC
:1003D000BFF8306801303060284600F0B1F8F5E72A
:1003E00040F2245440F2185640F22055C2F2000464
:1003F000C2F20006C2F20005204600F0A9F83068FB
:1004000001303060284600F09BF8F5E740F21C50C0
:10041000C2F20000016801310160FBE74EF6235093
:10042000CEF20000F02101707047000040F2B530BC
:1004300040F2E13140F20D42C0F60000C0F600018A
:10044000C0F6000200F004F800F032F8FEE7000009
:100450002DE9F04140F228570646EFF3108072B6BE
:10046000C2F2000707F10800786007F11000F86099
:10047000002090460D467F6100F046F840F264048B
:10048000C2F200040120C4F8886100F03DF80220A7
:10049000C4F8185300F038F840F21450C2F20000CB
:1004A00007600120C4F8A88462B6BDE8F0810000AE
:1004B00080B540F2600041F64011C2F20000C0F287
:1004C000010101600A2000F001F880BD10B54EF274
:1004D0001004CEF2000400212160A16040F260010E
:1004E000C2F200010968484301386060FFF796FFD7
:1004F000206840F005002060206840F00200206085
:10050000FFF7A2FE10BD000080B540F26401C2F208
:1005100000014FF4C87200FB021240F2285302F5AA
:10052000A871C2F2000343F830104FF08070C2F897
:100530008C0108463821AA22FFF7C6FE80BD0000C4
:10054000EFF3108172B601680131016062B6704745
:10055000EFF3108172B6016839B900BF62B6EFF3EC
:10056000108172B601680029F8D00139016062B6C5
:100570007047F1EE100A4FF6FF71C0F2C03120EA69
:10058000010040F04070E1EE100A70479C05000841
:0C05900000000020400B000000020008EA
:04000005080001C529
:00000001FF
